{
  "_format": "hh-sol-artifact-1",
  "contractName": "BookLoan",
  "sourceName": "contracts/BookLoan.sol",
  "abi": [
    {
      "inputs": [],
      "stateMutability": "nonpayable",
      "type": "constructor"
    },
    {
      "anonymous": false,
      "inputs": [
        {
          "indexed": true,
          "internalType": "uint256",
          "name": "bookId",
          "type": "uint256"
        },
        {
          "indexed": true,
          "internalType": "address",
          "name": "borrower",
          "type": "address"
        }
      ],
      "name": "BookLoaned",
      "type": "event"
    },
    {
      "anonymous": false,
      "inputs": [
        {
          "indexed": true,
          "internalType": "uint256",
          "name": "bookId",
          "type": "uint256"
        },
        {
          "indexed": false,
          "internalType": "string",
          "name": "title",
          "type": "string"
        },
        {
          "indexed": false,
          "internalType": "string",
          "name": "author",
          "type": "string"
        },
        {
          "indexed": true,
          "internalType": "address",
          "name": "registrant",
          "type": "address"
        }
      ],
      "name": "BookRegistered",
      "type": "event"
    },
    {
      "anonymous": false,
      "inputs": [
        {
          "indexed": true,
          "internalType": "uint256",
          "name": "bookId",
          "type": "uint256"
        },
        {
          "indexed": true,
          "internalType": "address",
          "name": "returnee",
          "type": "address"
        }
      ],
      "name": "BookReturned",
      "type": "event"
    },
    {
      "inputs": [
        {
          "internalType": "uint256",
          "name": "",
          "type": "uint256"
        }
      ],
      "name": "books",
      "outputs": [
        {
          "internalType": "uint256",
          "name": "id",
          "type": "uint256"
        },
        {
          "internalType": "string",
          "name": "title",
          "type": "string"
        },
        {
          "internalType": "string",
          "name": "author",
          "type": "string"
        },
        {
          "internalType": "address",
          "name": "currentHolder",
          "type": "address"
        },
        {
          "internalType": "bool",
          "name": "isLoaned",
          "type": "bool"
        }
      ],
      "stateMutability": "view",
      "type": "function"
    },
    {
      "inputs": [
        {
          "internalType": "uint256",
          "name": "bookId",
          "type": "uint256"
        }
      ],
      "name": "loanBook",
      "outputs": [],
      "stateMutability": "nonpayable",
      "type": "function"
    },
    {
      "inputs": [],
      "name": "nextBookId",
      "outputs": [
        {
          "internalType": "uint256",
          "name": "",
          "type": "uint256"
        }
      ],
      "stateMutability": "view",
      "type": "function"
    },
    {
      "inputs": [],
      "name": "owner",
      "outputs": [
        {
          "internalType": "address",
          "name": "",
          "type": "address"
        }
      ],
      "stateMutability": "view",
      "type": "function"
    },
    {
      "inputs": [
        {
          "internalType": "string",
          "name": "title",
          "type": "string"
        },
        {
          "internalType": "string",
          "name": "author",
          "type": "string"
        }
      ],
      "name": "registerBook",
      "outputs": [],
      "stateMutability": "nonpayable",
      "type": "function"
    },
    {
      "inputs": [
        {
          "internalType": "uint256",
          "name": "bookId",
          "type": "uint256"
        }
      ],
      "name": "returnBook",
      "outputs": [],
      "stateMutability": "nonpayable",
      "type": "function"
    }
  ],
  "bytecode": "0x608060405234801561001057600080fd5b50336000806101000a81548173ffffffffffffffffffffffffffffffffffffffff021916908373ffffffffffffffffffffffffffffffffffffffff160217905550610da8806100606000396000f3fe608060405234801561001057600080fd5b50600436106100625760003560e01c8063195a011914610067578063687440461461008357806372e23267146100b75780637cf52d96146100d35780638da5cb5b146100f1578063ca5140c91461010f575b600080fd5b610081600480360381019061007c9190610808565b61012b565b005b61009d60048036038101906100989190610874565b61029f565b6040516100ae959493929190610a39565b60405180910390f35b6100d160048036038101906100cc9190610874565b610412565b005b6100db610541565b6040516100e89190610a1e565b60405180910390f35b6100f9610547565b604051610106919061096c565b60405180910390f35b61012960048036038101906101249190610874565b61056b565b005b6040518060a0016040528060015481526020018381526020018281526020013373ffffffffffffffffffffffffffffffffffffffff168152602001600015158152506002600060015481526020019081526020016000206000820151816000015560208201518160010190805190602001906101a89291906106e8565b5060408201518160020190805190602001906101c59291906106e8565b5060608201518160030160006101000a81548173ffffffffffffffffffffffffffffffffffffffff021916908373ffffffffffffffffffffffffffffffffffffffff16021790555060808201518160030160146101000a81548160ff0219169083151502179055509050503373ffffffffffffffffffffffffffffffffffffffff166001547f15d146eed19cb9f8b4dca8e2f7d87fecb39050f0fa3eb624f37e41fef57ae15c848460405161027b929190610987565b60405180910390a36001600081548092919061029690610bf9565b91905055505050565b60026020528060005260406000206000915090508060000154908060010180546102c890610b96565b80601f01602080910402602001604051908101604052809291908181526020018280546102f490610b96565b80156103415780601f1061031657610100808354040283529160200191610341565b820191906000526020600020905b81548152906001019060200180831161032457829003601f168201915b50505050509080600201805461035690610b96565b80601f016020809104026020016040519081016040528092919081815260200182805461038290610b96565b80156103cf5780601f106103a4576101008083540402835291602001916103cf565b820191906000526020600020905b8154815290600101906020018083116103b257829003601f168201915b5050505050908060030160009054906101000a900473ffffffffffffffffffffffffffffffffffffffff16908060030160149054906101000a900460ff16905085565b6002600082815260200190815260200160002060030160149054906101000a900460ff1615610476576040517f08c379a000000000000000000000000000000000000000000000000000000000815260040161046d906109fe565b60405180910390fd5b60016002600083815260200190815260200160002060030160146101000a81548160ff021916908315150217905550336002600083815260200190815260200160002060030160006101000a81548173ffffffffffffffffffffffffffffffffffffffff021916908373ffffffffffffffffffffffffffffffffffffffff1602179055503373ffffffffffffffffffffffffffffffffffffffff16817f0ea2e6ac30a324bca49ca3ff99fca44151c2cac5c0273fa5fb4e1a6cd744855b60405160405180910390a350565b60015481565b60008054906101000a900473ffffffffffffffffffffffffffffffffffffffff1681565b6002600082815260200190815260200160002060030160149054906101000a900460ff166105ce576040517f08c379a00000000000000000000000000000000000000000000000000000000081526004016105c5906109de565b60405180910390fd5b3373ffffffffffffffffffffffffffffffffffffffff166002600083815260200190815260200160002060030160009054906101000a900473ffffffffffffffffffffffffffffffffffffffff1673ffffffffffffffffffffffffffffffffffffffff1614610672576040517f08c379a0000000000000000000000000000000000000000000000000000000008152600401610669906109be565b60405180910390fd5b60006002600083815260200190815260200160002060030160146101000a81548160ff0219169083151502179055503373ffffffffffffffffffffffffffffffffffffffff16817f8430f3edf8e599216e82e74036a3997b56dda6283ea97e28f330b76e914eef6160405160405180910390a350565b8280546106f490610b96565b90600052602060002090601f016020900481019282610716576000855561075d565b82601f1061072f57805160ff191683800117855561075d565b8280016001018555821561075d579182015b8281111561075c578251825591602001919060010190610741565b5b50905061076a919061076e565b5090565b5b8082111561078757600081600090555060010161076f565b5090565b600061079e61079984610abf565b610a9a565b9050828152602081018484840111156107b657600080fd5b6107c1848285610b54565b509392505050565b600082601f8301126107da57600080fd5b81356107ea84826020860161078b565b91505092915050565b60008135905061080281610d5b565b92915050565b6000806040838503121561081b57600080fd5b600083013567ffffffffffffffff81111561083557600080fd5b610841858286016107c9565b925050602083013567ffffffffffffffff81111561085e57600080fd5b61086a858286016107c9565b9150509250929050565b60006020828403121561088657600080fd5b6000610894848285016107f3565b91505092915050565b6108a681610b0c565b82525050565b6108b581610b1e565b82525050565b60006108c682610af0565b6108d08185610afb565b93506108e0818560208601610b63565b6108e981610ccf565b840191505092915050565b6000610901601d83610afb565b915061090c82610ce0565b602082019050919050565b6000610924601283610afb565b915061092f82610d09565b602082019050919050565b6000610947601683610afb565b915061095282610d32565b602082019050919050565b61096681610b4a565b82525050565b6000602082019050610981600083018461089d565b92915050565b600060408201905081810360008301526109a181856108bb565b905081810360208301526109b581846108bb565b90509392505050565b600060208201905081810360008301526109d7816108f4565b9050919050565b600060208201905081810360008301526109f781610917565b9050919050565b60006020820190508181036000830152610a178161093a565b9050919050565b6000602082019050610a33600083018461095d565b92915050565b600060a082019050610a4e600083018861095d565b8181036020830152610a6081876108bb565b90508181036040830152610a7481866108bb565b9050610a83606083018561089d565b610a9060808301846108ac565b9695505050505050565b6000610aa4610ab5565b9050610ab08282610bc8565b919050565b6000604051905090565b600067ffffffffffffffff821115610ada57610ad9610ca0565b5b610ae382610ccf565b9050602081019050919050565b600081519050919050565b600082825260208201905092915050565b6000610b1782610b2a565b9050919050565b60008115159050919050565b600073ffffffffffffffffffffffffffffffffffffffff82169050919050565b6000819050919050565b82818337600083830152505050565b60005b83811015610b81578082015181840152602081019050610b66565b83811115610b90576000848401525b50505050565b60006002820490506001821680610bae57607f821691505b60208210811415610bc257610bc1610c71565b5b50919050565b610bd182610ccf565b810181811067ffffffffffffffff82111715610bf057610bef610ca0565b5b80604052505050565b6000610c0482610b4a565b91507fffffffffffffffffffffffffffffffffffffffffffffffffffffffffffffffff821415610c3757610c36610c42565b5b600182019050919050565b7f4e487b7100000000000000000000000000000000000000000000000000000000600052601160045260246000fd5b7f4e487b7100000000000000000000000000000000000000000000000000000000600052602260045260246000fd5b7f4e487b7100000000000000000000000000000000000000000000000000000000600052604160045260246000fd5b6000601f19601f8301169050919050565b7f596f7520617265206e6f7420686f6c64696e67207468697320626f6f6b000000600082015250565b7f426f6f6b206973206e6f74206c6f616e65640000000000000000000000000000600082015250565b7f426f6f6b20697320616c7265616479206c6f616e656400000000000000000000600082015250565b610d6481610b4a565b8114610d6f57600080fd5b5056fea26469706673582212207c7f999906de803803fc3c319a071b7c4546d24d27d00da55041319606717de964736f6c63430008040033",
  "linkReferences": {},
  "deployedLinkReferences": {}
}